:1000000000300020E904000035050000390500003B
:1000100000000000000000000000000000000000E0
:100020000000000000000000000000003D0500008E
:100030000000000000000000410500004505000030
:10004000490500004D050000510500005505000060
:1000500031050000310500003105000031050000C8
:10006000590500005D050000610500006505000000
:10007000950F00006D0500007105000031050000BE
:100080003105000031050000310500003105000098
:100090003105000031050000310500003105000088
:1000A0003105000031050000310500003105000078
:1000B0003105000031050000B50E000031050000DB
:10040000FFFFFFFFFFFFFFFFFFFFFFFFFEFFFFFFFD
:1004100010B5064C2378002B07D1054B002B02D0DA
:10042000044800E000BF0123237010BD6CF0FF1FE3
:1004300000000000802C000008B5084B002B03D002
:100440000748084900E000BF07480368002B03D0B5
:10045000064B002B00D0984708BDC04600000000A6
:10046000802C000070F0FF1F68F0FF1F00000000EC
:10047000164B002B00D1144B9D46402292029A1A33
:10048000924600218B460F461348144A121A02F076
:10049000E1F80F4B002B00D098470E4B002B00D0FB
:1004A00098470020002104000D000D48002802D0CC
:1004B0000C4800E000BF02F0A7F82000290000F07F
:1004C00045FD02F08BF8C046000008000030002017
:1004D00000000000000000006CF0FF1F00F1FF1F93
:1004E000000000000000000072B60A480A490160DE
:1004F0000A6882F30888094880470949094A0A4B73
:100500009B1A03DD043BC858D050FBDC62B6074899
:100510008047000008ED00E000000000C525000055
:10052000A82C000000F0FF1F6CF0FF1F71040000FA
:10053000104800471048004710480047104800473F
:10054000104800471048004710480047104800472F
:10055000104800471048004710480047104800471F
:10056000104800471048004710480047104800470F
:10057000104800473105000035050000390500002E
:100580003D05000041050000450500005118000030
:10059000691800008118000099180000091900006E
:1005A00029190000091F0000451F0000911E0000CE
:1005B00085230000A9230000002934D00123002254
:1005C00010B488422CD301242407A14204D28142D2
:1005D00002D209011B01F8E7E400A14204D28142E2
:1005E00002D249005B00F8E7884201D3401A1A435F
:1005F0004C08A04202D3001B5C0822438C08A04296
:1006000002D3001B9C082243CC08A04202D3001B4B
:10061000DC082243002803D01B0901D00909E3E7C5
:10062000101C10BC7047002801D00020C04307B444
:10063000024802A14018029003BDC046D900000044
:100640000029F0D003B5FFF7B9FF0EBC4243891A69
:100650001847C046002941D010B4041C4C40A446A1
:1006600001230022002900D54942002800D540423C
:1006700088422CD301242407A14204D2814202D211
:1006800009011B01F8E7E400A14204D2814202D231
:1006900049005B00F8E7884201D3401A1A434C082E
:1006A000A04202D3001B5C0822438C08A04202D364
:1006B000001B9C082243CC08A04202D3001BDC088C
:1006C0002243002803D01B0901D00909E3E7101CCD
:1006D0006446002C00D5404210BC7047002806D06C
:1006E00003DB0020C043400801E08020000607B47F
:1006F000024802A14018029003BDC0461900000044
:100700000029EBD003B5FFF7A7FF0EBC4243891ABF
:100710001847C0467047C04680B582B000AF7860C9
:100720000A1CFB1C1A70FB1C1B78002B08D07B6872
:10073000DB78DBB208221343DAB27B68DA7007E0B9
:100740007B68DB78DBB208229343DAB27B68DA702D
:10075000BD4602B080BDC04680B582B000AF7860B3
:100760000A1CFB1C1A70FB1C1B78002B08D07B6832
:10077000DB78DBB204221343DAB27B68DA7007E07D
:100780007B68DB78DBB204229343DAB27B68DA70F1
:10079000BD4602B080BDC04680B582B000AF786073
:1007A0000A1CFB1C1A70FB1C1B78002B08D07B68F2
:1007B000DB78DBB208221343DAB27B68DA7007E039
:1007C0007B68DB78DBB208229343DAB27B68DA70AD
:1007D000BD4602B080BDC04680B582B000AF786033
:1007E0000A1CFB1C1A70FB1C1B78002B08D07B68B2
:1007F000DB78DBB204221343DAB27B68DA7007E0FD
:100800007B68DB78DBB204229343DAB27B68DA7070
:10081000BD4602B080BDC04680B588B000AFF8606C
:10082000B9603B60FB1D1A70354B1B78002B01D063
:10083000012360E0324BFA1D12781A70FB1D1B7801
:10084000032B2CD0062B01D0012B51D1FA682C4B55
:100850005A603B1C1833181C01F0E4FC3B1C183395
:10086000BA681A60264B59683A1C18323B68081C53
:10087000111C1A1C01F0CEFB214B5B68181C0121D6
:10088000FFF74AFF1E4B5B68181C0121FFF764FF4E
:100890001B4B1C4A9A601A4B1B4ADA602AE0FA6822
:1008A000174B5A603B1C1033181C01F0D1F93B1C4C
:1008B0001033BA681A60124B59683A1C10323B6800
:1008C000081C111C1A1C01F083F80D4B5B68181CE6
:1008D0000121FFF761FF0A4B5B68181C0121FFF73C
:1008E0007BFF074B094A9A60054B094ADA6001E031
:1008F000042300E00023181CBD4608B080BDC0469C
:1009000088F0FF1F9D220000D9220000611D000019
:10091000BD1D00000FB480B582B000AF0D4B1B7839
:10092000002B02D101235B420DE03B1C14333B60E2
:1009300009493A693B68081C111C1A1C00F0DAF8D6
:10094000031C7B607B68181CBD4602B080BC08BCE1
:1009500004B0184788F0FF1F5D09000090B583B010
:1009600000AF78600A4B1B78002B02D101235B4259
:1009700009E0074B9C68064B5A683B1D101C191C6C
:100980000122A0470123181CBD4603B090BDC046FC
:1009900088F0FF1F80B586B000AFB9607A603B6019
:1009A0003B1C0F33021C1A70BB687B610EE03B1CC2
:1009B0000F3300229A563B6A101C98473B681B680D
:1009C0005A1C3B681A607B6901337B617A697B68DA
:1009D0009A42ECDBBD4606B080BDC04680B58CB007
:1009E00000AFF860B9607A603B600023FB61FB6890
:1009F000BB61BB695A1CBA6100221A707B68002B6C
:100A000036D0BB681B68FB62FB6A002B07D1BB6951
:100A100030221A70FB690133FB61FB6966E023E059
:100A2000F86A3968FFF716FE031C7B617B693A6838
:100A30005343FA6AD31ABB62BB6A002B06DABB6A5D
:100A40003B623B6A3022D31ABB6202E0BB6A30339E
:100A5000BB627B69FB62BB695A1CBA61BA6AD2B2DB
:100A60001A70FB690133FB61FB6A002BD8D13CE0B3
:100A7000BB681B687B627B6A002B07D1BB69302295
:100A80001A70FB690133FB61FB692FE02AE03B68C8
:100A9000786A191CFFF790FD031C3B613B683A69BB
:100AA00053437A6AD31A3B623B6A092B03D83B6AE9
:100AB00030333B620BE03B1C38331B78002B01D0FA
:100AC000412300E061233A6A9B180A3B3B623B6981
:100AD0007B62BB695A1CBA613A6AD2B21A70FB696E
:100AE0000133FB617B6A002BD1D1FB69181CBD4629
:100AF0000CB080BD80B59CB002AFF860B9607A6080
:100B000000233B660023FB650023BB613B1C4A338B
:100B100000221A7000233B61BB687B667FE17B6C1F
:100B2000252B07D07A6CFB68101C9847BB690133F2
:100B3000BB6171E13B1C4B3301221A7000237B65C2
:100B40000023BB651CE07B6E01337B667B6E1B78EC
:100B50005BB27B647B6C2F2B0DDD7B6C392B0ADC4D
:100B60007A6D131C9B009B185B001A1C7B6CD318BE
:100B7000303B7B6504E07B6E013B7B660123BB65FC
:100B8000BB6D002BDFD006233B657B6E01337B669C
:100B90007B6E1B785BB22E2B25D100233B65002397
:100BA000BB651CE07B6E01337B667B6E1B785BB2A2
:100BB0007B647B6C2F2B0DDD7B6C392B0ADC3A6D53
:100BC000131C9B009B185B001A1C7B6CD318303BDA
:100BD0003B6504E07B6E013B7B660123BB65BB6D1F
:100BE000002BDFD002E07B6E013B7B667B6E013326
:100BF0007B667B6E1B785BB27B647B6C642B1BD04B
:100C00007B6C692B18D07B6C662B15D07B6C462BCC
:100C100012D07B6C782B0FD07B6C582B0CD07B6C5C
:100C20006F2B09D07B6C622B06D07B6C702B03D0B2
:100C30007B6C752B00D0ABE07B6C642B02D07B6CA3
:100C4000692B19D17B681A1D7A601B687B613A1C7D
:100C50001C323B1C1433391C4B3109780091101C99
:100C6000191C01220A23FFF7B9FE031CFB653A1C7D
:100C70001C32FB6DD3183B667B6C582B02D07B6C0F
:100C8000782B20D17B6C782B03D13B1C4B3300227B
:100C90001A707B681A1D7A601B683B613A1C1C3213
:100CA0003B1C1033391C4B3109780091101C191C66
:100CB00000221023FFF792FE031CFB653A1C1C3236
:100CC000FB6DD3183B667B6C6F2B08D07B6C622B63
:100CD00005D07B6C702B02D07B6C752B3BD17B6875
:100CE0001A1D7A601B683B617B6C6F2B08D002DC9D
:100CF000622B0AD018E0702B0CD0752B0FD013E0AC
:100D00003B1C4A3308221A700EE03B1C4A33022275
:100D10001A7009E03B1C4A3310221A7004E03B1C95
:100D20004A330A221A70C0463B1C4A331B78391CCE
:100D30001C313A1C1032381C4B3000780090081CD3
:100D4000111C0022FFF74AFE031CFB653A1C1C32F3
:100D5000FB6DD3183B667A6DF96D3B1C1833F86850
:100D600000902020FFF716FE3B6E002B0FD00AE00C
:100D70003B6E5A1E3A661B785AB2FB68101C9847A5
:100D8000BB690133BB613B6E1B78002BF0D143E0A4
:100D90007B6C632B0ED17B681A1D7A601B68DBB2FB
:100DA0005BB23B643A6CFB68101C9847BB6901332B
:100DB000BB6131E07B6C732B27D17B681A1D7A6095
:100DC0001B68FB64FB6C002B26D0FB6C181C01F02D
:100DD00049FC031CFB657A6DF96D3B1C1833F86800
:100DE00000902020FFF7D6FD0AE0FB6C5A1CFA6445
:100DF0001B785AB2FB68101C9847BB690133BB6172
:100E0000FB6C1B78002BF0D106E07A6CFB68101CA1
:100E10009847BB690133BB617B6E01337B667B6E98
:100E20001B785BB27B647B6C002B00D077E6BB69E0
:100E3000181CBD461AB080BD80B500AF044B044AF3
:100E400012688021C9024A401A60BD4680BDC04672
:100E500040F00F4080B500AF134A1349134BCB58F5
:100E6000802189011943114BD150114B104A52680E
:100E7000802189000A435A600D4B0D4A92688021F7
:100E800089000A439A600A4B094AD2688021890086
:100E90000A43DA60064B064A1269802189000A4338
:100EA0001A61BD4680BDC046007004403810000085
:100EB00000D0044080B500AF024B9A68024B1A6024
:100EC000BD4680BD10E000E0E0F0FF1F80B584B0BB
:100ED00000AF78600A1CFB1C1A707B68002B01D1E4
:100EE00001232EE07B68FB60FB681A69FB68DB6806
:100EF000D31A5A425341DBB2002B01D0032320E026
:100F000062B67B685A687B6819687B68DB68013B5E
:100F1000CB189A4204D17B681A687B685A6004E057
:100F20007B685B685A1C7B685A607B685B68FA1C4C
:100F300012781A707B681B695A1C7B681A6172B63A
:100F40000023181CBD4604B080BDC04680B500AF6C
:100F500000F004F80023181CBD4680BD80B582B0A7
:100F600000AF01F009FB01F09BFA01F04BFA62B609
:100F7000FFF770FFFFF760FF00237B6003E0C046D0
:100F80007B6801337B607A68014B9A42F7DDF1E7B9
:100F90003F420F0080B500AF0A4B1B79DBB21A1C31
:100FA0002023134007D0074BDB79DBB2064A101C25
:100FB000191CFFF78BFF054AA0230549D150BD46F8
:100FC00080BDC04600A00640E4F0FF1F0090044032
:100FD000FFFF000080B582B000AF7860074B074A82
:100FE0001168074A11407A689004C0221203024037
:100FF0000A431A60BD4602B080BDC046007004407E
:10100000FFFFF3FF80B582B000AF7860084A08495F
:10101000084BC958084B19407B68180480235B02B1
:1010200003401943034BD150BD4602B080BDC046BA
:101030000070044004100000FFFFFEFF80B584B084
:1010400000AF786039603B1C0F337A6812781A70F1
:101050003B1C0F333A1C0F3211785F220A401A7082
:101060003B6819783B1C0F333A1C0F3212780A4345
:101070001A707B683A1C0F3212781A70BD4604B0A1
:1010800080BDC04680B584B000AF78600A1CFB1CF0
:101090001A703B1C0F337A6812781A703B1C0F339E
:1010A0003A1C0F3212780F218A431A703B1C0F33FF
:1010B000391C0F31FA1C097812780A431A707B68C0
:1010C0003A1C0F3212781A70BD4604B080BDC0467B
:1010D00080B500AF074B1B68002B06D10649074AB5
:1010E000074B081CE12100F03FFB024B1B68181C5A
:1010F000BD4680BDFCF0FF1F78260000642A00007A
:101100009026000080B582B000AFFFF7E1FF031C1E
:101110007B607B68002B01D17B683FE0214B1B7813
:10112000DBB21A1C38231340DA08FB1C1A70FB1CB4
:101130001B787A68111CD9400B1C7B60194B5B78BB
:10114000DBB21A1C302313401A09BB1C1A70BB1CDB
:101150001B78002B21D0FB1C1B78062B0AD002DC4D
:10116000002B17DB02E0072B0CD013E07B685B0938
:101170007B6012E07B68181C1421FFF71DFA031C2A
:101180007B600AE07B68181C0C21FFF715FA031C32
:101190007B6002E000237B60C0467B68181CBD4674
:1011A00002B080BD0040064080B500AF084B9B797F
:1011B000DBB21A1C102313401B0903D1FFF7A2FF57
:1011C000031C01E0034B1B68181CBD4680BDC046D4
:1011D0000040064000F0FF1F80B500AFFFF778FF2A
:1011E000031C181CBD4680BD80B584B000AF78607C
:1011F0007A680E4B9A4204D83B1C0F3300221A70B7
:101200000CE07A680A4B9A4204D83B1C0F33012247
:101210001A7003E03B1C0F3302221A703B1C0F3381
:101220001B78181CBD4604B080BDC04697980000CE
:1012300000127A0080B582B000AF104A104BD2582D
:1012400080235B0213401B0C02D0012B05D00CE065
:1012500000F032F8031C7B600AE000F06BF8031C1E
:101260007B607B685B087B6002E000237B60C0469C
:101270007B68181CBD4602B080BDC04600700440AB
:101280000410000080B582B000AF7860084A7B6827
:101290005968084BD1507B681B78181CFFF7B2FEC9
:1012A0007B685B78181CFFF795FEBD4602B080BDD9
:1012B000007004404410000080B582B000AF1B4BAA
:1012C0005B78DBB21A1C0223134006D1174B9B79C3
:1012D000DBB21A1C2023134001D0002322E0FFF7C9
:1012E00063FF031C7B607B68002B01D17B6819E0E6
:1012F0000E4BDB78DBB21A1C602313405A09FB1C2F
:101300001A700A4BDB78DAB2BB1CD2091A70FB1CCC
:101310001978BB1C1A78064B49008A185200D35A18
:101320007A685343181CBD4602B080BD0040064099
:101330007C2A000080B582B000AF194B9B79DBB2EC
:101340001A1C4023134001D1002325E0FFF744FF7E
:10135000031C7B607B68002B05D112481249134A9D
:10136000134B00F001FA0E4B1B79DBB21A1C1F2342
:10137000134001337868191CFFF71EF9031C7B60CA
:10138000074B5B79DBB21A1C1F2313401A1C18325F
:101390007B6853437B607B68181CBD4602B080BDF0
:1013A0000040064078260000550200008C2A00000C
:1013B000AC26000080B582B000AF021CFB1D1A7085
:1013C0000023181CBD4602B080BDC04680B584B065
:1013D00000AFFB1D1870BB1D19707B1D1A70424BAE
:1013E0009B79DBB21A1C0C2313409B08FB603E4B1D
:1013F0009B79D9B23B1C0B3301220A401A703A4B3D
:101400001B7ADBB21A1C0E2313405A083B1C0A330A
:101410001A707A1D3B1C0A3312781B789A422FD01F
:101420003B1C0B331B78012B19D1FB68012B06D019
:101430002D4B1B78DBB21A1C022313400FD02A4B12
:10144000294A5278D2B201218A43D2B25A70C04698
:10145000254B9B79DBB21A1C01231340F8D1224A99
:10146000214B1B7ADBB22F218B43D9B27B1D1B781A
:10147000DB18D8B20E230340DBB20B43DBB213728E
:10148000194B194A5278D2B201218A43D1B2BA1DFE
:10149000107801220240D2B20A43D2B25A70124BE3
:1014A000114A1278D2B203218A43D1B2FA1D1278BE
:1014B0000A43D2B21A70FB68012B04D0FB1D1A78C4
:1014C000022313400AD0C046074B9B79DBB21A1C9B
:1014D00001231A40BB1D1B789A42F5D10023181C2A
:1014E000BD4604B080BDC0460040064080B584B013
:1014F00000AF78607B68002B06D12148BE2399009D
:10150000204A214B00F030F93B1C0F3300221A70A7
:101510007B685A781F231340D9B23B1C0F333A1C07
:101520000F3212780A431A70184B3A1C0F32127895
:101530001A71164B154A5279D2B21F218A43D1B281
:101540007A6890781F220240D2B20A43D2B25A710E
:101550000E4B0E4A1279D1B27A6812780A43D2B28F
:1015600040210A43D2B21A71C046084B9B79DBB2C4
:101570001A1C40231340F8D0BD4604B080BDC046BD
:1015800078260000A02A0000B8260000004006408F
:1015900090B585B000AF78607B681B683C1C0F3449
:1015A000181CFFF721FE031C23707B681B791C4A63
:1015B000101C191CFFF766FD7B680633184A101CC7
:1015C000191CFFF73BFD174B164A5278D2B23C214B
:1015D0008A43D1B23A1C0F3212781201D0B23022B3
:1015E0000240D2B20A43D1B27A6852790A43D2B2E7
:1015F0005A707B685B79002B0ED0094B1B78DBB2ED
:10160000DBB25BB2002B07DAC046064B9B79DBB23C
:101610001A1C02231340F8D0BD4605B090BDC04649
:10162000005006400040064080B582B000AF021C6A
:101630003960FB1D1A703B68002B05D125482649EF
:10164000264A274B00F090F8264B264A5278D2B211
:1016500002218A43D2B25A70224B224A1278D1B266
:101660003B220A40D2B2802149420A43D2B21A70C8
:10167000C0461C4B9B79DBB21A1C1C231340082B61
:10168000F7D1184B174A5279D2B240218A43D2B2CD
:101690005A71C046134B9B79DBB21A1C20231340AE
:1016A000F8D13B68181CFFF721FF0E4B0D4A527909
:1016B000D2B240210A43D2B25A71C046094B9B793B
:1016C000DBB21A1C20231340F8D00023181CBD469F
:1016D00002B080BD7826000064050000B42A000036
:1016E000B82600000040064080B582B000AF3A60E6
:1016F000FB1D021C1A70BB1D0A1C1A703B68002BD4
:1017000005D114481449154A154B00F02DF8FB1D5E
:101710001B78181CFFF74EFEBB1D1A783B68101C87
:10172000191CFFF781FF0F4B0E4A1278D1B23F22EE
:101730000A40D2B21A70C0460A4B9B79DBB21A1C1F
:101740000C2313409B08032BF6D10023181CBD4625
:1017500002B080BD782600000D060000C82A0000F7
:10176000B82600000040064090B587B002AFF86090
:10177000B9607A603B6005483968FA68BB687C6884
:101780000094FFF7C7F800BEFDE7C046C026000082
:1017900080B584B000AFF860B9607A60BB68032B95
:1017A00007D91048DA23191CFF310F4A0F4BFFF7F6
:1017B000DBFF7B68002B12D0F968BA6884235B00DA
:1017C00012018A18D3181B68802252041A43F86841
:1017D000B96884235B0009014118CB181A60BD4623
:1017E00004B080BD00270000EC2A0000182700008C
:1017F00080B582B000AF78607B68002B07D11148BC
:101800001E23191CFF31104A104BFFF7ADFF7B68F8
:1018100019687B681B791A1C80235B04081C111C47
:101820001A1CFFF7B5FF7B689B68002B07D07B680D
:101830009A687B68DB687968081C191C9047BD466C
:1018400002B080BD44270000DC2A0000BC27000055
:1018500080B500AF034B1B68181CFFF7C9FFBD46DE
:1018600080BDC04698F0FF1F80B500AF034B5B689A
:10187000181CFFF7BDFFBD4680BDC04698F0FF1F96
:1018800080B500AF034B9B68181CFFF7B1FFBD4646
:1018900080BDC04698F0FF1F80B500AF034BDB68EA
:1018A000181CFFF7A5FFBD4680BDC04698F0FF1F7E
:1018B00080B582B000AF786039607B68DB78DBB2DE
:1018C0001A1C1023134006D17B689B78DBB21A1CCC
:1018D0002023134007D00A4B1B6879683A68081C1C
:1018E000111C984706E0074B1B6879683A68081C8A
:1018F000111C9847BFF34F8FBD4602B080BDC04654
:10190000B0F0FF1FB4F0FF1F80B500AF044B1B68A1
:10191000044A101C191CFFF7CBFFBD4680BDC04612
:10192000A8F0FF1F0060064080B500AF044B5B6865
:10193000044A101C191CFFF7BBFFBD4680BDC04602
:10194000A8F0FF1F0070064090B585B000AF78602A
:101950007B681B0C084A9B18FB60FB68FA681168DF
:101960007A681204120C0120041C9440221C0A43C1
:101970001A60BD4605B090BD0070044080B584B0CB
:1019800000AF78600023FB6007E00D4A7B689A4255
:1019900000D105E0FB680133FB60FB68002BF4D04D
:1019A000FB68002B06D00749074A084B081C90210A
:1019B000FFF7DAFEFB68181CBD4604B080BDC046C8
:1019C00000A0064068280000082B000080280000C6
:1019D00090B58DB000AFF860B9607A60BB68002B3D
:1019E00006D19549954A964B081CD721FFF7BCFEB6
:1019F000BB681B68002B06D18F49904A914B081C8D
:101A0000D821FFF7B1FE3B1C2C3300221A800023A3
:101A10007B62BB681B68BB6104233B625DE0BB6803
:101A20001B683A6A53437868191CFEF7C5FD031C0E
:101A30001A1C3B1C2A331A803B1C2A331B88002BA0
:101A400003D13B1C2A3301221A803B1C2A331B88FA
:101A50003A6A53437868191CFEF7AEFD031C7B619C
:101A6000BB681B687A69D31AFB61BB681C683B1CA6
:101A70002A331B8801333A6A53437868191CFEF7EE
:101A80009BFD031CE21AFB699A4215D2BB681C68D5
:101A90003B1C2A331B8801333A6A53437868191C6C
:101AA000FEF78AFD031CE31AFB613B1C2A331A88EC
:101AB0003B1C2A3301321A80FA69BB699A4209D861
:101AC000FB69BB613B6A7B623B1C2C333A1C2A32AC
:101AD00012881A803B6A01333B623B6A202B9ED9F5
:101AE000BB681B68181C6421FEF766FD031C1A1CEA
:101AF000131C5B009A18BB699A4201D2524B97E0C3
:101B0000FB68181CFFF73AFF504B181CFFF71CFF2F
:101B1000FB68DB78DBB20C229343DAB2FB68DA7045
:101B20007B6A032B0AD97B6A072B07D8FB68DB7A11
:101B3000DBB202221343DAB2FB68DA72FB689B7AEB
:101B4000DBB21F229343DAB27B6ADBB2013BDBB22A
:101B50001343DAB2FB689A72FB689B7ADBB21F22EE
:101B60009343DAB23B1C2C331B881B0A9BB2DBB2BB
:101B70001343DAB2FB681A703B1C2C331B88DAB2B1
:101B8000FB685A70FB689B78DAB23B1C2F33132139
:101B90008A431A70BB681B79002B0BD0BB681A797B
:101BA0003B1C2F331B781343DAB23B1C2F3310211D
:101BB0000A431A70FB683A1C2F3212789A70FB683D
:101BC0001B78DBB220229343DAB2FB681A70FB6801
:101BD0001B78DAB2BB685B795B01D9B220230B407A
:101BE000DBB21343DAB2FB681A703B1C2F33FA687E
:101BF000D2781A70BB689B79002B07D03B1C2F331F
:101C00003A1C2F32127808210A431A70BB68DB791C
:101C1000002B07D03B1C2F333A1C2F3212780421A3
:101C20000A431A70FB683A1C2F321278DA700023CC
:101C3000181CBD460DB090BD682800001C2B00008C
:101C4000B4280000BC280000B50400000A003410CD
:101C500080B582B000AF78607B68002B07D10D485B
:101C60005623191CFF310C4A0C4BFFF77DFD7B6896
:101C7000E12252021A607B6800221A717B680022FE
:101C80005A717B6800229A717B680022DA71BD4626
:101C900002B080BD68280000282B0000B428000096
:101CA00080B584B000AF78607B681B79DBB21A1C0A
:101CB0007B685B79DBB21B021343FB60FB68181C7B
:101CC000BD4604B080BDC04680B584B000AF78602A
:101CD00039603B1C0B3300221A703B1C0B331B7802
:101CE000DBB20133DAB23B1C0B331A703A68802343
:101CF0001B02134006D07B6880225A713A68154B4C
:101D000013403B603A688023DB01134006D07B68B8
:101D100040225A713A68104B13403B603A681F23C7
:101D200013400AD03B68DAB21F231340DAB27B6853
:101D30001A713B681F2293433B603B68002B02D023
:101D4000064BFB6001E00023FB60FB68181CBD46EE
:101D500004B080BDFF7FFFFFFFBFFFFFB4040000A2
:101D600080B584B000AFF860B9607A60BB68002BC2
:101D700005D10E480E490F4A0F4BFFF7F5FC0DE059
:101D8000C046FB681B79DBB2DBB25BB2002BF8DA32
:101D9000BB685A1CBA601A78FB68DA717B685A1EF5
:101DA0007A60002BECD1BD4604B080BD68280000ED
:101DB00009020000402B0000AC28000080B586B06E
:101DC00000AFF860B9607A60BB68002B06D12A4882
:101DD00086239900294A2A4BFFF7C6FC41E032E0EE
:101DE000FB68181CFFF75CFF031C7B617A69082302
:101DF000134007D0FB68181C0821FFF765FF9723E5
:101E0000DB0034E07A690423134006D0FB68181C19
:101E10000421FFF759FF1B4B29E07A690223134085
:101E200006D0FB68181C0221FFF74EFF164B1EE080
:101E30007A690123134006D0FB68181C0121FFF7C3
:101E400043FF124B13E0FB681B79DBB21A1C202303
:101E50001340C5D0BB685A1CBA60FA68D279D2B2B6
:101E60001A707B685A1E7A60002BB8D10023181CA8
:101E7000BD4606B080BDC04668280000542B000057
:101E8000AC280000B9040000BA040000BB04000044
:101E900080B500AF044B1A68044B1B680449081C4A
:101EA000191C9047BD4680BDBCF0FF1FB8F0FF1F56
:101EB00000A0064080B582B000AF786039607B68D2
:101EC0001B78DBB21A1C102313400AD00B4B1B6883
:101ED0000B4A396889008A587968081C111C984790
:101EE00009E0084B1B68064A396889008A587968F6
:101EF000081C111C9847BD4602B080BDC8F0FF1FEA
:101F0000C0F0FF1FCCF0FF1F80B500AF084B1B686F
:101F1000002B06D107488123D900074A074BFFF75A
:101F200023FC074B181C0021FFF7C4FFBD4680BDF2
:101F3000C0F0FF1F1C290000682B0000982900003A
:101F40000060074080B500AF084B5B68002B06D1EE
:101F500007488223D900074A074BFFF705FC074BC8
:101F6000181C0121FFF7A6FFBD4680BDC0F0FF1F72
:101F70001C290000802B0000A829000000700740E9
:101F800090B585B000AF78607B681B0C084A9B1841
:101F9000FB60FB68FA6811687A681204120C012071
:101FA000041C9440221C0A431A60BD4605B090BD33
:101FB0000070044080B584B000AF78600323BB603C
:101FC0000023FB600AE00F4BFA689200D2587B684E
:101FD0009A4200D106E0FB680133FB60FA68BB68F7
:101FE0009A42F0D3FA68BB689A4206D30649074A78
:101FF000074B081CA921FFF7B7FBFB68181CBD465F
:1020000004B080BD982B0000B8290000B02B000060
:10201000D029000090B587B000AFF860B9607A6051
:10202000BB68002B06D17949794A7A4B081CD42128
:10203000FFF79AFBBB681B68002B06D17349744AF3
:10204000754B081CD521FFF78FFB3B1C1633002274
:102050001A803B1C153300221A7000233B61BB68B9
:102060001B681B017868191CFEF7A6FA031C1A1CD2
:102070003B1C16331A803B1C16331B88002B03D1E4
:102080003B1C163301221A803B1C16331B881B0194
:102090007868191CFEF790FA031C1A1CBB681B68B1
:1020A000D31A3B61BB681C683B1C16331B88013389
:1020B0001B017868191CFEF77FFA031CE21A3B69C2
:1020C0009A4214D2BB681C683B1C16331B88013330
:1020D0001B017868191CFEF76FFA031CE31A3B61B9
:1020E0003B1C16331A883B1C163301321A80BB681E
:1020F0001B68181C6421FEF75FFA031C1A1C131CD2
:102100005B009A183B699A4201D2444B79E0FB6824
:10211000181CFFF74FFF021C414B9200D358181CAC
:10212000FFF72EFFFB68DB78DBB20C229343DAB2B9
:10213000FB68DA70FB681B78DBB21F229343DAB2CC
:102140003B1C16331B881B0A9BB2DBB21343DAB26B
:10215000FB681A703B1C16331B88DAB2FB685A7096
:10216000FB689B78DAB23B1C153313218A431A7043
:10217000BB681B79002B0BD0BB681A793B1C15334D
:102180001B781343DAB23B1C153310210A431A7033
:10219000FB683A1C153212789A70FB681B78DBB228
:1021A00020229343DAB2BB685B795B01D9B220236A
:1021B0000B40DBB21343DAB2FB681A703B1C1533D9
:1021C000FA68D2781A70BB689B79002B07D03B1C49
:1021D00015333A1C1532127808210A431A70BB686D
:1021E000DB79002B07D03B1C15333A1C15321278D3
:1021F00004210A431A70FB683A1C15321278DA700F
:102200000023181CBD4607B090BDC046B829000089
:10221000C42B0000F4290000FC290000F503000095
:10222000A42B000080B582B000AF78607B68002BE3
:1022300007D10D485E23191CFF310C4A0C4BFFF7E8
:1022400093FA7B68E12252021A607B6800221A71BD
:102250007B6800225A717B6800229A717B68002299
:10226000DA71BD4602B080BDB8290000D02B000055
:10227000F429000080B584B000AF78607B681B79DA
:10228000DBB21A1C7B685B79DBB21B021343FB6079
:10229000FB68181CBD4604B080BDC04680B584B044
:1022A00000AFF860B9607A600DE0C046FB681B794A
:1022B000DBB2DBB25BB2002BF8DABB685A1CBA6047
:1022C0001A78FB68DA717B685A1E7A60002BECD1B1
:1022D000BD4604B080BDC04680B586B000AFF86092
:1022E000B9607A60BB68002B06D120488F23990023
:1022F0001F4A204BFFF738FA2DE01EE0FB68181C40
:10230000FFF7B8FF031C7B617A690823134001D0F3
:10231000194B26E07A690423134001D0174B20E0C3
:102320007A690223134001D0154B1AE07A69012320
:10233000134002D0FD239B0013E0FB681B79DBB246
:102340001A1C20231340D9D0BB685A1CBA60FA6803
:10235000D279D2B21A707B685A1E7A60002BCCD127
:102360000023181CBD4606B080BDC046B829000039
:10237000E82B0000242A0000F1030000F203000013
:10238000F303000080B500AF044B1A68044B5B6890
:102390000449081C191C9047BD4680BDDCF0FF1F96
:1023A000D0F0FF1F00B0064080B500AF044B1A68A4
:1023B000044B9B680449081C191C9047BD4680BD0E
:1023C000DCF0FF1FD0F0FF1F00C0064080B582B0D8
:1023D00000AF7860084A0849084BC958084B1940B3
:1023E0007B689806C0231B0503401943034BD1505B
:1023F000BD4602B080BDC04600700440041000001D
:10240000FFFFFFF380B582B000AF0120FFF7DEFFD2
:10241000FEF710FF031C7B600549E1235A027B682D
:10242000081C111C0322FEF7F7F9BD4602B080BD5F
:1024300000A0064080B500AF024A034B0349D150CB
:10244000BD4680BD00700440441000000000031031
:1024500080B582B000AF7860024B7A681A60BD46E2
:1024600002B080BDFCF0FF1F80B582B000AF021C3F
:10247000FB1D1A70094B094A1278D2B238218A43DF
:10248000D1B2FA1D1278D200D0B238220240D2B2B4
:102490000A43D2B21A70BD4602B080BD0040064069
:1024A00080B500AFFFF7C6FF114B181CFFF770F89F
:1024B000104B181CFFF7CCFF0023181CFFF7D4FFAC
:1024C0000D4B002000211A1CFFF70EF902210022FB
:1024D0000023081C111C1A1CFEF778FF074B181C60
:1024E000FEF7D0FE064B074A1A60BD4680BDC046C7
:1024F000102C000000127A00032C0000082C0000B1
:1025000004F0FF1F006CDC0290B585B000AF78606E
:102510007B681B0C084A9B18FB60FB68FA68116813
:102520007A681204120C0120041C9440221C0A43F5
:102530001A60BD4605B090BD0070044080B584B0FF
:1025400000AFF860B960FB1D1A70FB68BA689200B2
:10255000D258084B1A40FB1D1B781902E023DB0000
:102560000B40111C1943FB68BA689200D150BD465C
:1025700004B080BDFFF8FFFF80B500AF0D4B181C05
:10258000FFF7C2FF0C4B181C01210222FFF7D6FFF8
:10259000094B181C02210222FFF7D0FF074A074906
:1025A000074BCB580721181C8843011C044BD15002
:1025B000BD4680BD09003810009004400070044002
:1025C0001010000080B500AF034A88235B01002192
:1025D000D150BD4680BDC04600700440084B10B5C8
:1025E000041C002B02D0002100E000BF054B18683E
:1025F000836A002B00D09847201C00F03BF8C046AF
:10260000000000001C2C000070B50E4B0E4D002485
:10261000ED1AAD101E1CAC4204D0A300F35898472D
:102620000134F8E700F02CFB084B094D0024ED1AAB
:10263000AD101E1CAC4204D0A300F35898470134DF
:10264000F8E770BDA02C0000A02C0000A02C00001A
:10265000A42C0000031C8218934202D0197001338D
:10266000FAE770470023C25C0133002AFBD1581EF1
:1026700070470000FEE7C0462E2E2F647269766513
:1026800072732F66736C5F636C6F636B2E630000F5
:10269000675F7874616C304672657100675F78744B
:1026A000616C333246726571000000006D636770C3
:1026B0006C6C30636C6B0000636F6E666967000062
:1026C000415353455254204552524F522022202507
:1026D0007320223A2066696C652022257322204CE3
:1026E000696E6520222564222066756E6374696FA9
:1026F0006E206E616D652022257322200A00000085
:102700002E2E2F647269766572732F66736C5F6408
:102710006D612E68000000006368616E6E656C205C
:102720003C2046534C5F464541545552455F444D0D
:10273000414D55585F4D4F44554C455F4348414EC0
:102740004E454C002E2E2F647269766572732F668B
:10275000736C5F646D612E6300000000696E7374BA
:10276000616E6365203C2041525241595F53495A82
:102770004528735F646D61426173657329000000D1
:102780006368616E6E656C203C2046534C5F464525
:1027900041545552455F444D415F4D4F44554C4562
:1027A0005F4348414E4E454C00000000636F6E662B
:1027B000696720213D204E554C4C000068616E64D5
:1027C0006C6520213D204E554C4C000073726341D6
:1027D00064647220213D204E554C4C006465737436
:1027E0004164647220213D204E554C4C0000000095
:1027F000287372635769647468203D3D2031552900
:10280000207C7C20287372635769647468203D3D86
:1028100020325529207C7C202873726357696474A8
:1028200068203D3D20345529000000002864657370
:10283000745769647468203D3D20315529207C7CA3
:102840002028646573745769647468203D3D2032A4
:102850005529207C7C2028646573745769647468EA
:10286000203D3D20345529002E2E2F647269766557
:1028700072732F66736C5F6C707363692E630000F4
:10288000696E7374616E6365203C204152524159F8
:102890005F53495A4528735F6C7073636942617373
:1028A0006573290068616E646C6500006461746121
:1028B00000000000636F6E6669670000636F6E66FC
:1028C00069672D3E62617564526174655F42707321
:1028D0000000000062617564526174655F4270734C
:1028E0000000000072696E674275666665720000DE
:1028F0007866657200000000786665722D3E64613E
:10290000746153697A650000786665722D3E646172
:1029100074610000636F756E740000002E2E2F64CA
:102920007269766572732F66736C5F7370692E635C
:1029300000000000696E7374616E6365203C204185
:10294000525241595F53495A4528735F7370694227
:102950006173657329000000636F6E6669672026E6
:102960002620737263436C6F636B5F487A000000CC
:10297000636F6E666967000078666572000000002C
:1029800068616E646C65000068616E646C65202629
:102990002620786665720000735F73706948616E07
:1029A000646C655B305D0000735F73706948616ED5
:1029B000646C655B315D00002E2E2F647269766554
:1029C00072732F66736C5F756172742E6300000002
:1029D000696E7374616E6365203C20756172744129
:1029E00072726179436F756E7400000068616E6485
:1029F0006C650000636F6E6669670000636F6E66EA
:102A000069672D3E62617564526174655F427073DF
:102A10000000000062617564526174655F4270730A
:102A200000000000646174610000000072696E675C
:102A30004275666665720000786665720000000087
:102A4000786665722D3E6461746153697A65000031
:102A5000786665722D3E646174610000636F756E07
:102A600074000000434C4F434B5F4765744D6367F0
:102A7000457874436C6B4672657100008002DC021D
:102A80000005B80580079508000A710B434C4F43B9
:102A90004B5F476574506C6C304672657100000086
:102AA000434C4F434B5F456E61626C65506C6C30BC
:102AB00000000000434C4F434B5F53657450626508
:102AC0004D6F646500000000434C4F434B5F426F05
:102AD0006F74546F5065654D6F646500444D415F80
:102AE00048616E646C65495251000000444D415F7D
:102AF000436C6561724368616E6E656C537461749A
:102B00007573466C616773004C505343495F47656A
:102B100074496E7374616E63650000004C505343DA
:102B2000495F496E697400004C505343495F4765E3
:102B30007444656661756C74436F6E666967000006
:102B40004C505343495F5772697465426C6F636BB5
:102B5000696E67004C505343495F52656164426C33
:102B60006F636B696E670000535049305F44726950
:102B700076657249525148616E646C65720000005E
:102B8000535049315F4472697665724952514861C8
:102B90006E646C65720000000000000000B006402A
:102BA00000C00640000000000B0034100C00341080
:102BB000554152545F476574496E7374616E636525
:102BC00000000000554152545F496E6974000000D6
:102BD000554152545F47657444656661756C744332
:102BE0006F6E666967000000554152545F5265611F
:102BF00064426C6F636B696E67000000070200003F
:102C000000000000010000000103000000000110AE
:102C100000127A00000480004300000008F0FF1F4B
:102C200000000000000000000000000000000000A4
:102C30000000000000000000000000000000000094
:102C40000000000000000000000000000000000084
:102C50000000000000000000000000000000000074
:102C60000000000000000000000000000000000064
:102C70000000000000000000000000000000000054
:102C8000F8B5C046F8BC08BC9E467047F8B5C046CB
:082C9000F8BC08BC9E46704729
:082C9800D8D7FF7F0100000006
:042CA00039040000F3
:042CA4001104000017
:102CA800008000000000400100000000202C00000F
:102CB800402C0000602C0000000000000000000014
:102CC8000000000000000000182C000000000000B8
:102CD80000000000000000000000000000000000EC
:102CE80000000000000000000000000000000000DC
:102CF80000000000000000000000000000000000CC
:0C2D0800000000000000000000000000BF
:04000003000004E90C
:00000001FF
